:020000040800F2
:100000000050002021020008270200082B020008EF
:100010009D020008A1020008E9020008000000009B
:100020000000000000000000000000003103000894
:10003000350300080000000039030008010C000827
:100040004D0300084D0300084D0300084D03000850
:100050004D0300084D030008D5070008F10700080C
:100060000D0800084D0300084D0300084D0300086B
:100070004D0300084D0300084D0300084D03000820
:100080004D0300084D0300084D0300084D03000810
:100090004D0300084D0300084D0300084D03000800
:1000A0004D030008D10C00084D0300084D03000863
:1000B0002D0A00084D0300084D0300084D030008F9
:1000C0004D0300084D0300084D0300084D030008D0
:1000D0004D0300084D0300084D0300084D030008C0
:1000E0004D0300084D0300084D0300080000000008
:1000F0000000000000000000000000000000000000
:1001000000000000000000005FF808F100B583B0B7
:1001100000F0AAF9304B314A1360314A1360314B79
:10012000314A32498B4204D21168196004330432D7
:10013000F7E72A4B1A682E4B9A4200D0FEE7284B6D
:100140001A682C4B9A42F9D1234B2B4A13602B4A45
:1001500013602B4B02E000221A600433294A9342B9
:10016000F9D3254B1B6813B9244B1B6803B1FEE779
:1001700000F086F9694601A800F022F9224C234BD1
:10018000E41AA4100025AC4214DC214C214BE41AE3
:10019000A4100025AC4213DC0099019801F02CF862
:1001A00005461D4C1D4BE41AA410002C0EDC2846FD
:1001B00000F0E2F8154B53F8253098470135E2E797
:1001C000144B53F8253098470135E3E7013C134BB6
:1001D00053F824309847E8E7BABADECA0000002096
:1001E000E400002000000020A0210008E80000201A
:1001F0007856341232547698E8000020C802002065
:10020000E8000020CC0200207803000878030008F2
:1002100078030008780300087803000878030008D2
:1002200008B5FFF773FF00BEFEE71EF0040F0CBF1A
:10023000EFF30880EFF309807146414A10472DE93A
:10024000F04182B004468846124B5E6B9F6B9D6AFC
:100250001B6B13F0020F03D00E4BDB6A002B0CDB81
:100260000D4800F0B5F8CDF800803B4632462946EF
:10027000204600F009F900BEFEE74BF6AB6100F046
:100280007DF90028ECD0034B4FF00042DA6202B057
:10029000BDE8F08100ED00E09C1F000800BEFEE715
:1002A0001EF0040F0CBFEFF30880EFF309807146D6
:1002B000244A10472DE9F04182B004468846084B95
:1002C0005E6B9F6B9D6A074800F082F8CDF8008056
:1002D0003B4632462946204600F0D6F800BEFEE7EF
:1002E00000ED00E0AC1F00081EF0040F0CBFEFF3A0
:1002F0000880EFF309807146134A10472DE9F04159
:1003000082B004468846084B5E6B9F6B9D6A074827
:1003100000F05EF8CDF800803B4632462946204684
:1003200000F0B2F800BEFEE700ED00E0B81F0008E4
:1003300000BEFEE700BEFEE700BEFEE7704700001D
:100340003F020008B5020008FD02000800BEFEE7FB
:10035000A021000800000020E8000020A0210008E3
:100360000000000000000000E8000020CC02002097
:08037000000000000000000085
:10037800FEE7000008B503460C4A12685AB10B4A5A
:100388001068033323F003030344094A934206D851
:10039800064A136008BD054A06491160EFE701F0F7
:1003A80039F90C2303604FF0FF30F3E7EC0000202D
:1003B800004C0020CC02002001230360014B0B609D
:1003C800704700BF040000200FB400B583B004AB31
:1003D80053F8042B01938021064801F059F90028AD
:1003E80003DD0146034800F037F803B05DF804EB7D
:1003F80004B07047F40000202DE9F04385B00446AE
:100408000F4643560BB10E461EE0042528462146EA
:10041800ABBE0446384605B0BDE8F08314F9011BAD
:1004280004AA1A4402F8101C0133AB42F6D304AAFA
:100438001344002203F8102C4FF00408E946404604
:100448004946ABBE8046761B002EE3D03546102EBB
:1004580028BF10250023E8E708B5FFF7CDFF08BD42
:1004680008B500F0FDF8024A024B9A6008BD00BFCB
:100478000000000800ED00E008B500F019F908BD1B
:10048800F8B504460D4617461E462748FFF79CFF59
:1004980021682648FFF798FF61682548FFF794FF11
:1004A800A1682448FFF790FFE1682348FFF78CFF15
:1004B80021692248FFF788FF61692148FFF784FF17
:1004C800A1692048FFF780FFE1691F48FFF77CFF1B
:1004D8001E48FFF779FF29461D48FFF775FF1D4C99
:1004E800E16A1D48FFF770FF216B1C48FFF76CFF9E
:1004F800E16B1B48FFF768FF15F0800F0AD115F470
:10050800004F0CD11748FFF75FFF06991648FFF711
:100518005BFFF8BD39461548FFF756FFEFE7314650
:100528001348FFF751FFEDE7801E0008901E0008F2
:10053800A01E0008B01E0008C01E0008D01E00083B
:10054800E01E0008F01E0008001F0008101F000829
:100558001C1F000800ED00E02C1F00083C1F0008CD
:100568004C1F00087C1F0008841F00085C1F00083F
:100578006C1F000883691A888A4201D000207047DE
:100588000268033A012A03D80233836101207047C5
:100598000020704782B00023019300932C4A13680F
:1005A80043F4803313602A4B1B6803F40033009331
:1005B800019B01330193009B1BB9019BB3F5A06F0D
:1005C800F1D1234B1B6813F4003F06D0012300939D
:1005D800009B012B04D002B0704700230093F7E77B
:1005E8001C4B1A6842F010021A601A6822F00302C3
:1005F8001A601A6842F002021A60A3F580535A681A
:100608005A605A685A605A6842F480625A605A6856
:1006180022F47C125A605A6842F4E8125A601A6846
:1006280042F080721A600A4B1B6813F0007FFAD000
:10063800074B5A6822F003025A605A6842F00202D5
:100648005A60034B5B6803F00C03082BF9D1C2E72F
:10065800001002400020024008B5FFF79BFF08BDCC
:1006680008B5104B1A6842F001021A6059680E4A20
:100678000A405A601A6822F0847222F480321A60A2
:100688001A6822F480221A605A6822F4FE025A601C
:100698004FF41F029A60FFF7DFFF044B4FF0006230
:1006A8009A6008BD001002400000FFF800ED00E06D
:1006B8001F4B5B6803F00C03042B15D0082B17D0D5
:1006C8001BB11C4B1C4A1A6002E01A4B1A4A1A60EA
:1006D800174B5B68C3F30313184AD35CDAB21549A6
:1006E8000B68D3400B607047124B134A1A60EFE750
:1006F8000F4A53685268C3F38343023312F4803FAE
:100708000AD00B4A526812F4003F0BD00C4A02FB85
:1007180003F3084A1360DBE7094A02FB03F3054ABF
:100728001360D5E7044A02FB03F3024A1360CFE7DC
:10073800001002401C00002000127A000C0000206B
:1007480000093D0030B4830800F00300094A023371
:1007580052F8234080000F25854024EA050442F81A
:10076800234052F823408140214342F8231030BCF3
:10077800704700BF0000014010B4104C22680123EC
:1007880003FA00F002432260994209D019B1022904
:100798000BD010BC7047094B9A6810439860F8E773
:1007A800064BDA681043D860F3E7044B9A680243B3
:1007B8009A60DA681043D860EBE700BF0004014094
:1007C800014B43F8210070477401002008B5044A22
:1007D800536943F001035361024B1B68984708BDF6
:1007E800000401407401002008B5044A536943F02D
:1007F80002035361024B5B68984708BD000401403F
:100808007401002008B5044A536943F00403536196
:10081800024B9B68984708BD000401407401002002
:1008280070B4012825D018B1022844D070BC704794
:10083800072910D90F29F9D82F4B186808398E00C5
:100848000F21B14020EA01011960186802FA06F187
:1008580001431960EAE7294B18688D000F21A94068
:1008680020EA01011960186802FA05F101431960CC
:10087800DCE7072911D90F29D8D821480468A1F144
:1008880008039B000F21994024EA010101600468D4
:1008980002FA03F121430160C8E71A4B18688C007B
:1008A8000F21A14020EA01011960186802FA04F139
:1008B80001431960BAE7072910D90F29B6D8124B96
:1008C8001868083989000F248C4020EA0400186051
:1008D800186802FA01F101431960A7E70B4B1C687D
:1008E80088000F21814024EA010119601C6802FA7E
:1008F80000F12143196099E704080140000801400C
:10090800040C0140000C014004100140001001409B
:10091800012817D010B1022827D07047012A0AD021
:10092800002A2DD11A480368012202FA01F123EAAC
:100938000101016070471648036802FA01F1194382
:1009480001607047012A09D0D2B912480368012210
:1009580002FA01F123EA0101016070470D480368BA
:1009680002FA01F1194301607047012A09D03AB926
:1009780009480368012202FA01F123EA0101016032
:1009880070470548036802FA01F11943016070478E
:100998000C0801400C0C01400C1001404FF0804342
:1009A80000221A60DA601A611A6842F080021A603E
:1009B8001A6842F010021A601A6842F004021A60BB
:1009C800DA6822F00102DA607047000010B40D4BBB
:1009D80000241C700C4B1A600C4BB3FBF1F101396D
:1009E8004FF080439962D8625A6942F001025A6115
:1009F800DA6842F00102DA601A6842F001021A600D
:100A080010BC704720000020D401002000127A009A
:100A18004FF08043D86A80B25B6A9BB2C01A80B23A
:100A28007047000008B50B4B1B784BB94FF080435B
:100A3800DA6822F00102DA601A6822F001021A600C
:100A4800054B1B6898474FF08042136923F0010358
:100A5800136108BD20000020D40100201F2808D9F8
:100A68003B2805D82038012303FA00F0044B18600E
:100A78007047012303FA00F0024B1860704700BF6B
:100A880004E100E000E100E010B40A4C23600A4CE5
:100A98001C44240A01FA04F41443002807DBE4B2D6
:100AA80000F1604000F564402401E4B2047010BC19
:100AB800704700BF0CED00E000FD05FA034B4FF452
:100AC80080321A60043301221A6070470010024015
:100AD8001F291CD801280BD010B1022810D070474C
:100AE8000B480368012202FA01F1194301607047BB
:100AF80008480368012202FA01F1194301607047AE
:100B080005480368012202FA01F1194301607047A0
:100B1800141002401C1002401810024070B506461E
:100B28000F241CE046FA04F202F0010200210846F4
:100B3800FFF7EEFE012202210020FFF7E9FE134D28
:100B48002946012000F09EF8002202211046FFF7F6
:100B5800DFFE2946012000F095F8013C64B2002C24
:100B6800E0DA012211460020FFF7D2FE074C2146A9
:100B7800012000F087F8002201211046FFF7C8FE87
:100B88002146012000F07EF870BD00BF40420F00F2
:100B9800024A136823F004031360704710E000E072
:100BA80010B40C4B1A6822F001021A6000240A4A99
:100BB80014600A4A11600A4A10601A6842F0010279
:100BC8001A601A6842F002021A60064B1C7010BCC8
:100BD800704700BF10E000E018E000E0B40100201A
:100BE80014E000E0B8010020024B186804331B68C9
:100BF800C01A704714E000E000B583B000238DF8F8
:100C08000730104B1B786BB90F4B1A6822F00102A2
:100C18001A601A6822F002021A6000230B4A136055
:100C2800043213600A4B1B689847074B1A68C2F3D3
:100C380000428DF807201A6822F480321A6003B047
:100C48005DF804FBB801002010E000E014E000E0CB
:100C5800B40100200A4B00221A60DA601A611A688F
:100C680042F080021A601A6842F010021A601A688C
:100C780042F004021A60DA6822F00102DA60704772
:100C8800002C01400E4BB3FBF1F101390D4B996279
:100C9800D8625A6942F001025A611A6842F00102A8
:100CA8001A60084B1B6913F0010FFAD0054B1A683C
:100CB80022F001021A601A6922F001021A617047D3
:100CC80000127A00002C014008B50A4B1B7843B982
:100CD800094BDA6822F00102DA601A6822F0010290
:100CE8001A60064B1B689847034A136923F00103EF
:100CF800136108BD21000020002C0140D80100200C
:100D080000BF704708B5234B1B78DBB2012B10D00E
:100D1800214B1B78DBB2012B0DD0204A20494EF61F
:100D28006020FFF753FE01231B4A1370194A137002
:100D380008BD00BFFCE7FFF76BFE174B5860194B67
:100D480093F8CD30DBB2692B20D0164B93F8CD3019
:100D5800DBB2642B1AD0104B5B68B3F57A7F15D9D8
:100D68000D4B5A684EF65F239A420FD80A4B5B68C0
:100D780003EBC303C3EB03130B4AA2FB03129B1A37
:100D880002EB5303C3F34F33084A1380024B00228C
:100D98001A70C2E7F4010020E8010020090D0008DC
:100DA800A0860100F801002005BB7D79E401002040
:100DB80038B50F4B1B789BB10D4D95F8CC40E4B27C
:100DC800FFF712FF05EB840460600A490A48FFF741
:100DD800E7FE95F8CC300133DBB285F8CC3038BD6E
:100DE80004490548FFF7DCFE014B01221A70F6E7BB
:100DF800F8010020690F0008400D03004C4B984291
:100E080078D010D94B4B984243D033D94A4B9842AB
:100E180000F0898003F57F03984239D1474B82223D
:100E280083F8CD20704703F1764303F520239842D9
:100E380065D003F1FF7398426BD003F1544303F577
:100E48003013984273D13D4B732283F8CD203C4B2D
:100E58001A78D2B23B498A5CD2B25A701A780132F7
:100E6800D2B21A701B78DBB2092B60D1344B002246
:100E78001A707047A3F57F03984208D12F4B93F857
:100E8800CD30DBB26E2B21D0732B2DD0704770473D
:100E980070472A4B93F8CD30DBB26E2B02D0732B00
:100EA8000ED07047284AD3785BB201335BB2D37057
:100EB800D3785BB2132B3ADD13460022DA70704701
:100EC8001F4A13790133DBB2137170471E4AD37876
:100ED8005BB2013B5BB2D370D37813F0800F26D09E
:100EE80013461322DA707047154A1379013BDBB2B7
:100EF80013717047114B6E2283F8CD2070470F4B4A
:100F0800692283F8CD20104A13880A339BB21380D4
:100F180070470A4B642283F8CD200B4A13880A3B9A
:100F28009BB213807047054B872283F8CD2070470A
:100F380002BD14EB02BD12ED02BD11EEF801002056
:100F4800DC01002074000020E4010020002304E0FC
:100F5800002240F823200133DBB28B42F8D37047DC
:100F680010B51D4B5A6842F20F739A422AD91A4B90
:100F78005A6844F268239A4224D80123002007E0E3
:100F8800013A012101FA02F220EA02000133DBB240
:100F9800202B15D81A46104901EB83014968B1F591
:100FA800FA6FEDD30C4901EB83014C6840F6AB11A5
:100FB8008C42E5D85A1E012101FA02F21043E5E7F6
:100FC800FFF71CFF04480023037080F8CC3032215F
:100FD8000430FFF7BBFF10BDF8010020F8B5064646
:100FE8000D464FF40040FFF799FD00242AE01F4FFB
:100FF800388840F40040FFF791FD788840F40040BD
:10100800FFF78CFDB88840F4004040F00300FFF77C
:1010180085FDF88840F40040FFF780FD388940F4EA
:101028000040FFF77BFD124A93780133DBB29370DF
:101038004FF40040FFF772FD0E492846FFF722FEE5
:101048000134E4B2B4420FD20A492846FFF71AFE27
:10105800074B9A78D2B2DB785BB29A42C7D048F293
:101068000300FFF75BFDDEE7F8BD00BF24000020AA
:10107800E4010020A086010038B54F4C208840F4D8
:101088000040FFF74BFD608840F40040FFF746FD45
:10109800A08840F40040FFF741FDE08840F400409C
:1010A800FFF73CFD208940F40040FFF737FD434D32
:1010B80029880520FFF792FF414C208840F4004022
:1010C800FFF72CFD608840F40040FFF727FDA0885B
:1010D80040F40040FFF722FDE08840F40040FFF7AD
:1010E8001DFD208940F40040FFF718FD608940F499
:1010F8000040FFF713FDA08940F40040FFF70EFD04
:1011080029880520FFF76AFF2E4C208840F400400C
:10111800FFF704FD608840F40040FFF7FFFCA0885B
:1011280040F40040FFF7FAFC4FF40040FFF7F6FCEC
:10113800254C208840F40040FFF7F0FC608840F41C
:101148000040FFF7EBFCA08840F40040FFF7E6FC06
:10115800E08840F40040FFF7E1FC29880520FFF70C
:101168003DFF1A4C208840F40040FFF7D7FC608808
:1011780040F40040FFF7D2FCA08840F40040FFF79D
:10118800CDFCE08840F40040FFF7C8FC208940F41B
:101198000040FFF7C3FC608940F40040FFF7BEFC45
:1011A800A08940F40040FFF7B9FC29880520FFF723
:1011B80015FF0023AB7038BDBC010020E4010020FE
:1011C8005800002030000020380000204000002097
:1011D80070B506460D46002405E036F81400FFF702
:1011E8009DFC0134E4B2A3B2AB42F6D370BD00005B
:1011F80000B5EBB0C74C5BAD26460FCE0FC50FCE82
:101208000FC50FCE0FC596E8070085E8070054AD57
:1012180004F13C060FCE0FC596E8070085E80700E5
:101228004BAD04F158060FCE0FC50FCE0FC533686E
:101238002B803CAD04F17C060FCE0FC50FCE0FC539
:101248000FCE0FC596E8070003C52A802FAD04F11D
:10125800B8060FCE0FC50FCE0FC50FCE0FC533681A
:101268002B8021AD04F1EC060FCE0FC50FCE0FC5B4
:101278000FCE0FC596E8030085E80300482204F561
:1012880092710FA800F0CCF901AD04F5B6740FCC3B
:101298000FC50FCC0FC50FCC0FC594E8030085E828
:1012A80003009D4B00241C7083F8CD4083F8CC408C
:1012B8009A4B1C709A4B1C7042F667325A601C811C
:1012C8009C72984B4FF45C625A805C7040221A7191
:1012D800954B9C70DC7087221A80FFF7EFFB022188
:1012E8000846FFF7F5FB03210220FFF7F1FB214633
:1012F8000220FFF7EDFB0B210220FFF7E9FB214657
:101308000120FFF7E5FBFFF743FCFFF7A3FCFFF71E
:1013180045FB012221462046FFF782FA01221146A9
:101328002046FFF77DFA012202212046FFF778FACE
:10133800042221460120FFF773FA042201210846FE
:10134800FFF76EFA0620FFF789FB0720FFF786FBF9
:101358001920FFF783FB1C20FFF780FB734D2B46FA
:10136800224621460720FFF78FFB2B460122114614
:101378000620FFF789FB01212046FFF7E3F9012149
:101388000846FFF7DFF921466948FFF719FA0121F6
:101398006848FFF715FA01212046FFF7EDF901210A
:1013A8000846FFF7E9F92046FFF7B8FB624A1088BC
:1013B80062490C88624B2043188050884C8820432F
:1013C800588090888C8820439880D088C9880143A9
:1013D800D98012891A8104E0FFF74EFE4F4B002294
:1013E8001A704E4B1B78DBB2012BFAD14A4B93F89B
:1013F800CD30643B0F2BF1D801A252F823F000BF87
:1014080049140008E5130008E5130008E51300086F
:10141800E51300084F140008E5130008E513000859
:10142800E5130008E5130008E1130008E5130008B8
:10143800E5130008E5130008E51300085514000833
:10144800FFF71AFECAE7FFF717FEC7E7354B5B78C9
:10145800DBB22D2BC2D801A252F823F00D160008DA
:10146800E5130008E5130008E5130008E513000874
:1014780063150008E5130008E5130008E5130008E4
:10148800E513000879150008E5130008E5130008BE
:10149800E5130008E51300088F150008E513000898
:1014A800E5130008E5130008E51300084D150008CA
:1014B800E5130008E5130008E5130008E513000824
:1014C800E5130008E5130008E5130008E513000814
:1014D800E5130008CB150008E5130008E51300081C
:1014E800E5130008E5130008A5150008E513000832
:1014F800E5130008E5130008E5130008E1150008E6
:10150800E5130008E5130008E5130008E5130008D3
:10151800F7150008C81F0008F8010020F401002092
:10152800E8010020DC010020E40100200005FA05A4
:101538000D0D0008B90D00086800002050000020BB
:10154800BC010020314B18794FF47A71FFF79AFBF0
:101558000E2154A8FFF73CFE40E72C4B18794FF4B6
:101568007A71FFF78FFB1D213CA8FFF731FE35E7A5
:10157800264B18794FF47A71FFF784FB19212FA8AD
:10158800FFF726FE2AE7214B18794FF47A71FFF707
:1015980079FB1C2121A8FFF71BFE1FE71B4B1879BD
:1015A8004FF47A71FFF76EFB0E2154A8FFF710FE77
:1015B80017491420FFF766FB11214BA8FFF708FE17
:1015C8000CE7124B18794FF47A71FFF75BFB1E2179
:1015D8005BA8FFF7FDFD01E70C4B18794FF47A7112
:1015E800FFF750FB24210FA8FFF7F2FDF6E6074BA3
:1015F80018794FF47A71FFF745FB1C2101A8FFF712
:10160800E7FDEBE60020FFF789FAE7E6DC010020BA
:1016180040420F00014B1868704700BF800000204F
:1016280010B5431E0A44914200D110BD11F8014B78
:1016380003F8014FF7E730B5141E05469BB018466E
:1016480005DA8B234FF0FF302B601BB030BD4FF411
:101658000273ADF80C300CBF234604F1FF3302933C
:1016680005934FF6FF7300910491ADF80E300246D2
:101678001E9B6946284600F073F8431CBCBF8B23A9
:101688002B60002CE1D00022009B1A70DDE70000DF
:1016980007B5009313460A46014603480068FFF75A
:1016A800CAFF03B05DF804FB800000202DE9F04775
:1016B8008E6882469E420C469046994637D88A895B
:1016C80012F4906F31D00223256809696F1A656991
:1016D80005EB450595FBF3F509F101033B449D42F4
:1016E80038BF1D46530530D5294600F02BFB06466A
:1016F80050B90C234FF0FF30CAF80030A38943F0EB
:101708004003A381BDE8F0873A462169FFF788FFC7
:10171800A38923F4906343F08003A38126613E44A8
:1017280026604E466561ED1BA5604E4500D94E46C4
:1017380032464146206800F09FFAA36800209B1BB0
:10174800A36023681E442660DCE72A4600F054FBA9
:1017580006460028E2D12169504600F0A7FAC8E7FA
:101768002DE9F04F9DB003938B8980461D060C46EA
:1017780016460FD50B696BB9402100F0E3FA2060DB
:10178800206128B90C23C8F800304FF0FF30C7E0BB
:10179800402363610023099320238DF829303023E7
:1017A8004FF0010B8DF82A3037463D4615F8013BBE
:1017B8000BB1252B3ED1B7EB060A0BD05346324668
:1017C80021464046FFF772FF013000F0A480099BD4
:1017D800534409933B78002B00F09D8000234FF081
:1017E800FF32CDE90523049307938DF853301A93FC
:1017F8002F46052217F8011B4F4800F02FFA049BCB
:10180800D0B9D90644BF20228DF853201A0744BF07
:101818002B228DF853202A782A2A15D02F4600200B
:101828000A25079A394611F8013B303B092B4DD957
:10183800B8B10FE02F46B8E73F4A3D46801A0BFA89
:1018480000F018430490D3E7039A111D126803911E
:10185800002A01DB079204E0524243F00203079298
:1018680004933B782E2B0CD17B782A2B33D1039B06
:1018780002371A1D1B680392002BB8BF4FF0FF33C5
:1018880005932E4D03223978284600F0E7F938B140
:101898004023401B03FA00F0049B013703430493E1
:1018A8003978062226487E1C8DF8281000F0D6F9D3
:1018B800002838D0234B13BB039B073323F00703BF
:1018C80008330393099B4B4409936DE705FB0232E8
:1018D80001200F46A6E700230A251946013705937C
:1018E800384610F8012B303A092A03D9002BC8D002
:1018F8000591C6E705FB012101230746F0E703AB85
:1019080000932246104B04A94046AFF30080B0F183
:10191800FF3F8146D6D1A3895B063FF536AF0998CC
:101928001DB0BDE8F08F03AB00932246064B04A917
:10193800404600F081F8EAE76C21000872210008AF
:101948007621000800000000B51600082DE9F047D0
:1019580091461F468A680B6906469342B8BF1346EC
:10196800C9F8003091F843200C46DDF8208012B108
:101978000133C9F800302368990642BFD9F800300E
:101988000233C9F80030256815F0060507D104F1BF
:10199800190AE368D9F800209B1AAB4229DC94F8AD
:1019A80043302268003318BF012392062ED404F175
:1019B800430239463046C047013021D02368E568E4
:1019C80003F00603042B18BF0025D9F800204FF0B8
:1019D800000908BFAD1AA368226908BF25EAE575A2
:1019E8009342C4BF9B1AED181A344D451AD10020F2
:1019F80008E00123524639463046C047013003D13A
:101A08004FF0FF30BDE8F0870135C2E73020E1181C
:101A180081F843005A1C94F845102244023382F896
:101A28004310C4E70123224639463046C0470130F7
:101A3800E6D009F10109D8E72DE9F04301F1430C9B
:101A48000C46097E85B06E291746064698460C9ABC
:101A580000F0B38022D8632936D00AD8002900F0D4
:101A6800B980582900F0838004F1420584F84210B7
:101A780032E0642901D06929F6D120681368050687
:101A880003F104012AD51B681160002B03DA2D220B
:101A98005B4284F843206F480A2239E0732900F03A
:101AA8009D8008D86F2920D07029DDD1236843F0A4
:101AB8002003236003E0752917D07829D4D178232F
:101AC800654884F8453055E0136804F14205191D4E
:101AD8001B68116084F8423001238CE01B6810F009
:101AE800400F116018BF1BB2CFE713682568181D97
:101AF8001060280601D51B6802E06806FBD51B8824
:101B08006F2914BF0A2208225248002184F8431082
:101B18006568002DA560C0F29580216821F0040158
:101B28002160002B3DD1002D40F08E806546082AAB
:101B38000BD12368DB0708D5236962689A42DEBFA8
:101B4800302305F8013C05F1FF35ACEB05032361B3
:101B5800CDF800803B4603AA21463046FFF7F6FE43
:101B680001304DD14FF0FF3005B0BDE8F083394862
:101B780084F84510136821681D1D1B6815600A0646
:101B88000BD5CA0744BF41F0200121601BB9226868
:101B980022F0200222601022B7E74D0648BF9BB210
:101BA800EFE76546B3FBF2F102FB1133C35C05F8BE
:101BB800013D0B460029F5D1B9E713682568181DC2
:101BC8006169106028061B6801D5196002E06A0681
:101BD800FBD51980002365462361B9E71368191DF1
:101BE80011601D6862680021284600F037F808B1C6
:101BF800401B606063682361002384F84330A7E7D3
:101C080023692A4639463046C0470130AAD023689E
:101C18009B0713D4E068039B9842B8BF1846A3E714
:101C280001234A4639463046C04701309AD001352B
:101C3800E368039A9B1AAB42F2DCEBE7002504F158
:101C48001909F5E7002BACD1037804F1420584F8B3
:101C580042306CE77D2100088E21000810B5C9B21A
:101C680002449042034601D1002303E01C7801306E
:101C78008C42F6D1184610BD884210B501EB02031C
:101C880007D8421E99420AD011F8014B02F8014FB9
:101C9800F8E78342F5D98118D21AD34200D110BD92
:101CA80013F8014D01F8014DF7E7000038B5054676
:101CB800002943D051F8043C0C1F002BB8BFE4188E
:101CC80000F0D0F81E4A1368104633B963601460F8
:101CD8002846BDE8384000F0C6B8A3420BD92168B1
:101CE8006218934201BF1A685B68521822606360E9
:101CF8000460EDE713465A680AB1A242FAD9196896
:101D08005818A0420BD12068014458188242196023
:101D1800DED110685268014419605A60D8E702D9C8
:101D28000C232B60D4E7206821188A4201BF116870
:101D380052680918216062605C60C9E738BD00BF5D
:101D4800C801002070B5CD1C25F0030508350C2D01
:101D580038BF0C25002D064601DBA94203D90C2308
:101D68003360002070BD00F07DF8214A14682146D8
:101D780091B9204C23681BB9304600F063F8206005
:101D88002946304600F05EF8431C24D10C23304627
:101D9800336000F068F8E4E70B685B1B18D40B2B82
:101DA8000FD90B60CC18CD50304600F05CF804F128
:101DB8000B00231D20F00700C31AD3D05A42E2506B
:101DC800D0E74B688C4216BF636013600C46EBE7A4
:101DD8000C464968CCE7C41C24F00304A04205D093
:101DE800211A304600F02EF80130CFD02560DBE70D
:101DF800C8010020CC010020F8B5074614460E465D
:101E080021B9BDE8F8401146FFF79CBF22B9FFF79A
:101E18004DFF25462846F8BD00F026F8A0420FD20F
:101E280021463846FFF78EFF05460028F2D0314696
:101E38002246FFF7F5FB31463846FFF737FFE9E75B
:101E48003546E7E738B50023054C054608462360C4
:101E5800FEF790FA431C02D1236803B12B6038BD0A
:101E6800D00100207047704751F8043C181F002B20
:101E7800BCBF0B58C0187047537461636B206672FF
:101E8800616D653A0A000000205230203D2020256F
:101E98003038580A00000000205231203D2020250B
:101EA8003038580A00000000205232203D202025FA
:101EB8003038580A00000000205233203D202025E9
:101EC8003038580A0000000020523132203D2025C9
:101ED8003038580A00000000204C52203D202025B0
:101EE8003038580A00000000205043203D202025AB
:101EF8003038580A0000000020505352203D202559
:101F08003038580A000000004653522F4641523AD2
:101F18000A0000002043465352203D202025303837
:101F2800580A00002048465352203D2020253038CA
:101F3800580A00002044465352203D2020253038BE
:101F4800580A00002041465352203D2020253038B1
:101F5800580A0000204D4D464152203D202530387A
:101F6800580A00002042464152203D2020253038A2
:101F7800580A00004D6973630A000000204C522F74
:101F88004558435F52455455524E3D2025303858E8
:101F98000A0000005B486172644661756C745D0AF2
:101FA800000000005B4275734661756C745D0A0041
:101FB8005B55736167654661756C745D0A00000066
:101FC8007F00090009000600000041007F00410071
:101FD8000000410022001400080014002200410003
:101FE80000007F004900490000007F0040004000D9
:101FF80000002E0049004900320000001F002000A8
:10200800010020001E002000010020001F00000029
:102018007F004900490000007C00120011001100F7
:1020280012007C0000007F00090009001600600013
:1020380000007F0049004900000000007F004000C8
:10204800400000007F004900490000007C001200A9
:102058001100110012007C0000007F000900090037
:102068001600600000007F00040008001000200037
:1020780040007F00000000007F00020004000C0008
:10208800040002007F0000007C0012001100110013
:1020980012007C0000007F0008002400220041009C
:1020A80000007F0049004900000000002E004900A0
:1020B8004900320000007F000800080008007F0087
:1020C80000007C0012001100110012007C000000CA
:1020D8007F00090009001600600000007F00490029
:1020E8004900000001007F00010000007F00080097
:1020F800080008007F0000007C0012001100110099
:1021080012007C0000007F0004000800100020007E
:1021180040007F0000007F000800240022004100EA
:1021280000002E00490049003200000001007F0035
:10213800010000007F00090009001600600000008F
:102148007F004900490000007F00040008001000DB
:10215800200040007F0000007F0041004100220075
:102168001C000000232D302B2000686C4C00656695
:1021780067454647003031323334353637383941D0
:1021880042434445460030313233343536373839E6
:0721980061626364656600EB
:1021A00078563412F000002000000000000000000B
:1021B00000000000010203040607080900A24A0407
:1021C0000505FFFF20001000F8FF08001000FFFFCA
:1021D000040002003F00FFFF320029002900260012
:1021E0000E00010001000700010009000600FFFFCA
:1021F0002600250025001E000F00080008000F0023
:10220000090009000F00FFFF0084008200FF004169
:102210000042FFFF14050A0F231E282D00FFFFFFB9
:10222000840000200000000000000000000000000A
:10223000000000000000000000000000000000009E
:10224000000000000000000000000000000000008E
:10225000000000000000000000000000000000007E
:10226000000000000000000000000000000000006E
:10227000000000000000000000000000000000005E
:082280000000000032547698C2
:040000050800010DE1
:00000001FF
